:020000040800F2
:10000000F00400209D0100084D0900084509000882
:100010004B090008E5010008C90C000800000000B9
:10002000000000000000000000000000510900086E
:10003000E7010008000000004F090008530900080C
:10004000B7010008B7010008B7010008B7010008B0
:10005000B7010008B7010008B7010008B7010008A0
:10006000B7010008B7010008B7010008B701000890
:10007000B7010008B7010008B7010008B701000880
:10008000B7010008B7010008B7010008B701000870
:10009000B7010008B7010008B7010008B701000860
:1000A000B701000869090008B7010008B701000896
:1000B000B7010008B7010008B7010008B701000840
:1000C000B7010008B7010008B7010008B701000830
:1000D000B7010008BD0C0008B7010008B70100080F
:1000E000B7010008B7010008B7010008B701000810
:1000F000B7010008B7010008B7010008B701000800
:10010000000000000000000000000000B70100082F
:10011000B7010008B7010008B7010008B7010008DF
:10012000B7010008B7010008B7010008B7010008CF
:10013000B7010008B701000800000000000000003F
:10014000B7010008B7010008B7010008000000006F
:10015000000000000000000000000000000000009F
:100160000000000000000000B7010008B70100080F
:10017000B7010008000000000000000000000000BF
:1001800000000000B7010008DFF80CD000F018F8FC
:1001900000480047E50D0008F004002006488047AD
:1001A00006480047FEE7FEE7FEE7FEE7FEE7FEE75C
:1001B000FEE7FEE7FEE7FEE75909000889010008AF
:1001C000064C074D06E0E06840F0010394E80700A4
:1001D00098471034AC42F6D3FFF7DAFF440E00081C
:1001E000640E0008FEE77047014AC2E9001070473C
:1001F0000000002010B590F821100022022905D03F
:100200000421816380F82020012010BD01680B6863
:1002100023F00E030B6001680B6823F001030B60F1
:1002200090F84030C46B012101FA03F3636080F859
:10023000211080F82020002010BD10B590F821106A
:100240000024022903D004218163012418E00168FD
:100250000A6822F00E020A6001680A6822F00102B0
:100260000A6090F84020C36B012101FA02F25A6043
:1002700080F82110002180F82010416B01B18847DF
:10028000204610BD0AB1816170478162704700004D
:100290000248816802781144816070470C00002098
:1002A000074810B5016841F010010160032000F01B
:1002B0005FF8002000F006F800F024F8002010BDE0
:1002C0000020024070B50D4D04464FF47A71287835
:1002D000B1FBF0F00A490968B1FBF0F000F05AF800
:1002E00048B9102C07D200222146501E00F020F8F9
:1002F00000206C6070BD012070BD00000C0000206B
:1003000018000020094808B5816941F001018161A8
:10031000816901F001010091C16941F08051C16121
:10032000C06900F08050009008BD0000001002403D
:10033000F0B40E4B1B680C46C3F30223C3F1070550
:10034000042D00D90425191D072901D2002300E03E
:10035000DB1E012606FA05F1491E214099409E4008
:10036000761E16403143F0BC00F0AFBC0CED00E04F
:10037000064900F0070208684FF6FF03184040EAFC
:100380000220034A10430860704700000CED00E0B3
:100390000000FA0510B5401EB0F1807F01D30120A6
:1003A00010BD4FF0E02460610F21601700F08DFC5C
:1003B0000020A06107202061002010BD7047704719
:1003C0007047000090F83D10012901D001207047CE
:1003D000022180F83D100168CA6842F00102CA603B
:1003E0000068104988420ED0B0F1804F0BD00E4902
:1003F000884208D00D49884205D00D49884202D074
:100400000C49884207D181680B4A1140062906D061
:10041000B1F5803F03D0016841F001010160002087
:1004200070470000002C014000040040000800401C
:10043000003401400040014007000100704770B5E2
:100440000446006801694FF00005C943890715D4C7
:10045000C168C943890711D4E91E016101202077D1
:10046000206880698007204602D0FFF7E7FF04E09C
:1004700000F0A7F8204600F0A5F82577206801696C
:10048000C943490717D4C168C943490713D46FF05A
:1004900004010161022020772068806910F4407F08
:1004A000204602D0FFF7CAFF04E000F08AF8204699
:1004B00000F088F8257720680169C943090716D438
:1004C000C168C943090712D46FF008010161042013
:1004D00020772068C0698007204602D0FFF7AEFF72
:1004E00004E000F06EF8204600F06CF825772068F4
:1004F0000169C943C90617D4C168C943C90613D4E1
:100500006FF010010161082020772068C06910F4A5
:10051000407F204602D0FFF791FF04E000F051F841
:10052000204600F04FF8257720680169C943C907C4
:1005300008D1C168C943C90704D1891E0161204699
:1005400000F042F820680169C943090609D4C1686E
:10055000C943090605D46FF0800101612046FFF709
:100560002EFF20680169C943C90509D4C168C94380
:10057000090605D46FF4807101612046FFF71EFF64
:1005800020680169C943490609D4C168C9434906BD
:1005900005D46FF040010161204600F01FF820688B
:1005A0000169C94389060BD4C168C943890607D4C8
:1005B0006FF0200101612046BDE87040FFF700BFE9
:1005C00070BD704770470000034910B50968884244
:1005D00001D100F001FC10BD000000207047704701
:1005E000704770472DE9F04102680446D0691168F0
:1005F000936840F60F0528424FF000054FF00206C1
:1006000005D187067ED58F067CD5A16E2AE1DFF85D
:1006100084C203F0010701EA0C0C57EA0C0C71D0FC
:100620005FEAC07C0CD05FEAC15C09D54FF0010CD9
:10063000C2F820C0D4F8842042F00102C4F884201B
:10064000820709D5DA0707D022681662D4F8842019
:1006500042F00402C4F8842042070AD5DA0708D021
:10066000236804221A62D4F8842042F00202C4F8FB
:10067000842002070CD501F020023A4308D02368F9
:1006800008221A62D4F8842042F00802C4F88420B8
:1006900002050BD54A0109D523684FF400621A629E
:1006A000D4F8842042F02002C4F88420D4F88420B6
:1006B000002A36D0800605D5880603D5A16E09B17B
:1006C00020468847D4F8840021688968490602D406
:1006D00010F0280F27D0204600F05CF920688068D1
:1006E00040061BD52068083050E8001F21F040016B
:1006F00040E80012002AF5D1606F78B16649416385
:10070000606F00E015E0FFF798FD002809D0606FEA
:10071000416B00E02046BDE8F04108472046FFF766
:1007200060FFBDE8F0812046FFF75BFFC4F884500E
:10073000F7E7D4F860C02027BCF1010F7DD15FEA54
:10074000C06C7ED55FEAC16C7BD51020106220683A
:100750008068400642D5616F086840680004000C5C
:10076000DFD0B4F858208242DBD9A4F85A00886957
:1007700020282BD0216851E8000F20F4807041E838
:100780000002002AF6D12068083050E8001F21F04E
:10079000010140E80012002AF5D12068083050E835
:1007A000001F21F0400140E80012002AF5D1C4F8F2
:1007B00080702566206850E8001F21F0100140E895
:1007C0000012002AF6D1606FFFF714FD6666B4F8D8
:1007D0005800B4F85A10401A81B22CE0B4F858000E
:1007E000B4F85A10401A81B2B4F85A00002898D0D0
:1007F000002996D0226852E8000F20F4907042E859
:100800000003002BF6D12068083050E8002F22F0BA
:10081000010240E80023002BF5D1C4F88070256662
:10082000A566206850E8002F22F0100240E800235F
:10083000002BF6D16666204600E002E0FFF7CFFE0F
:100840006FE7C60209D55B0207D54FF4801010622E
:100850002046BDE8F041FFF7C3BE020606D50A06F2
:1008600004D5E16E00297FF455AF5AE74006E7D57D
:100870004806E5D52046026852E8001F21F04001F5
:1008800042E80013002BF6D1C767C56600F056F8A2
:1008900047E70000200100048109000830B4D0F8C7
:1008A0008030202B02D0022030BC704791B18AB139
:1008B0000023036603685B681B0208D5046854E8DC
:1008C000003F43F0806344E80035002DF6D130BC92
:1008D00000F04CB90120E7E710B500F015FA10BDA3
:1008E000C36F202B01D00220704781B17AB1C1645F
:1008F000A0F85020A0F852200021C166C0F8841052
:100900002121C1678168B1F5805F02D003E0012039
:100910007047016961B10749C166026852E8001F6A
:1009200041F0800142E80013002BF6D1002070470F
:100930000149F1E7710C0008210C000810B500F026
:10094000EFF910BDFEE7FFF7ABBCFEE7FEE770472F
:100950007047FFF79DBC00000248016841F4700138
:100960000160704788ED00E00148FFF768BD0000B6
:100970001C00002001480068FFF724BD0000002093
:1009800010B5406A0021A0F85A10A0F85210FFF7E5
:1009900028FE10BD016851E8002F22F4907241E852
:1009A0000023002BF6D10168083151E8002F22F016
:1009B000010241E80023002BF5D1016E012908D185
:1009C000026852E8001F21F0100142E80013002BDA
:1009D000F6D12021C0F880100021016681667047A1
:1009E0000146024801224068FFF758BF000000207E
:1009F00010B5B0F85C20D0F880300168222B04D00C
:100A0000886940F00800886110BD898C436D1140F1
:100A10001980416D891C4165B0F85A10491EA0F833
:100A20005A10B0F85A100029EED1026852E8001F9F
:100A300021F4907142E80013002BF6D101680831CF
:100A400051E8002F22F0010241E80023002BF5D1EC
:100A50002021C0F88010002181664166026852683A
:100A6000120208D5036853E8002F22F0806243E8A1
:100A70000024002CF6D1026E012A02D0FFF72CFFD1
:100A800010BD0166026852E8001F21F0100142E823
:100A90000013002BF6D10168CA69D243D20601D4F3
:100AA00010220A62B0F85810FFF799FD10BD10B57A
:100AB000B0F85C20D0F880300168222B04D088691F
:100AC00040F00800886110BD898C1140426D1170A2
:100AD000416D491C4165B0F85A10491EA0F85A10E2
:100AE000B0F85A100029EED1026852E8001F21F434
:100AF000907142E80013002BF6D10168083151E8EB
:100B0000002F22F0010241E80023002BF5D1202123
:100B1000C0F88010002181664166026852681202A6
:100B200008D5036853E8002F22F0806243E80024D0
:100B3000002CF6D1026E012A02D0FFF7CDFE10BDC7
:100B40000166026852E8001F21F0100142E800131C
:100B5000002BF6D10168CA69D243D20601D4102213
:100B60000A62B0F85810FFF73AFD10BD10B54165A4
:100B7000A0F85820A0F85A200021816682684FF41E
:100B80008054FF23A24204D102696ABB40F2FF12E3
:100B900027E01AB3A0F85C10C0F884102221C0F836
:100BA00080100168083151E8002F42F0010241E84D
:100BB0000023002BF5D18168A14201D10169B1B1B7
:100BC000114981660169A1B1026852E8001F41F430
:100BD000907142E80013002BF6D113E002691AB1BC
:100BE0007F22A0F85C20D7E7A0F85C30D4E7074963
:100BF0008166026852E8001F41F0200142E80013BC
:100C0000002BF6D1002010BDAF0A0008F109000842
:100C10000146024801224068FFF762BE0000002042
:100C2000C16F212910D1B0F8521071B1C16C0268A6
:100C30000988C1F308011185C16C891CC164B0F831
:100C40005210491EA0F852107047026852E8001F67
:100C500021F0800142E80013002BF6D1026852E82F
:100C6000001F41F0400142E80013002BF6D170470D
:100C7000C16F21290ED1B0F8521061B1C16C026868
:100C800009781185C16C491CC164B0F85210491E25
:100C9000A0F852107047016851E8002F22F080023E
:100CA00041E80023002BF6D1026852E8001F41F012
:100CB000400142E80013002BF6D170470148FFF7CE
:100CC00091BC000068000020FEE70907090E00281B
:100CD00004DB00F1E02080F80014704700F00F0002
:100CE00000F1E02080F8141D704702E008C8121FD0
:100CF00008C1002AFAD170477047002001E001C105
:100D0000121F002AFBD170470448012141700021C5
:100D100081700178491C01707047000008000020B4
:100D200010B52C4C002060702078C0074FF00000F8
:100D300002D000F07DF801E000F070F82078800724
:100D40004FF0010002D500F073F801E000F066F802
:100D5000207840074FF0020002D500F069F801E06A
:100D600000F05CF8207800074FF0030002D500F097
:100D70005FF801E000F052F82078C0064FF0040060
:100D800002D500F055F801E000F048F82078800620
:100D90004FF0050002D500F04BF801E000F03EF8FE
:100DA000207840064FF0060002D500F041F801E03F
:100DB00000F034F8207800064FF0070002D500F06C
:100DC00037F801E000F02AF8BDE810400148FFF7CD
:100DD00007BE00000800002001490120887070470C
:100DE00008000020FFF7AFFD0A4901F14C00FFF7B2
:100DF000FBF9FFF7BFFD0848FFF7F2FD064C6078EE
:100E00000028FCD0A0780028F9D00348FFF700FFA5
:100E1000F5E700001C000020080000204FF480715E
:100E2000814089B200220148FFF72CBA0010004827
:100E30004FF48071814089B201220148FFF722BA44
:100E400000100048640E0008000000201C00000094
:100E5000EA0C0008800E00081C000020D4040000EA
:100E6000FA0C000800000000000000000000000074
:100E700001000000100000000000000000127A00D5
:040000050800018965
:00000001FF
