:020000040800F2
:10000000480500209D0100089F18000859180008A5
:100010009D180008A90200087D1C000800000000CF
:10002000000000000000000000000000151C000897
:10003000AB04000800000000A1180008171C00080D
:10004000B7010008B7010008B7010008B7010008B0
:10005000B7010008B7010008B7010008B7010008A0
:10006000B7010008B7010008B7010008B701000890
:1000700039040008B7010008B7010008B7010008FB
:10008000B7010008B7010008B7010008B701000870
:10009000B7010008B7010008B7010008B701000860
:1000A000B7010008B7010008B7010008B701000850
:1000B000B7010008B7010008B7010008B701000840
:1000C000B7010008B7010008B7010008A51800082B
:1000D000B7010008B7010008B7010008B701000820
:1000E000B7010008B7010008B7010008B701000810
:1000F000B7010008B7010008B7010008B701000800
:10010000000000000000000000000000B70100082F
:10011000B7010008B7010008B7010008B7010008DF
:10012000B7010008B7010008B7010008B7010008CF
:10013000B7010008B701000800000000000000003F
:10014000B7010008B7010008B7010008000000006F
:10015000000000000000000000000000000000009F
:100160000000000000000000B7010008B70100080F
:10017000B7010008000000000000000000000000BF
:1001800000000000B7010008DFF80CD000F07AF89A
:1001900000480047BD1C000848050020064880476D
:1001A00006480047FEE7FEE7FEE7FEE7FEE7FEE75C
:1001B000FEE7FEE7FEE7FEE76D1C00088901000888
:1001C0002DE9F05F0546002092469B46884606468C
:1001D000814640241BE0284641464746224600F01F
:1001E00020F853465A46C01A914110D3114618467A
:1001F000224600F038F82D1A67EB01084F462246D8
:100200000120002100F02FF817EB00094E41201EBD
:10021000A4F10104DFDC484631462A464346BDE8E6
:10022000F09F202A04DB203A21FA02F000217047D7
:1002300021FA02F3D040C2F120029140084319464E
:100240007047D2B201E000F8012B491EFBD2704783
:100250000022F6E710B513460A4604461946FFF792
:10026000F0FF204610BD202A04DB203A00FA02F1FC
:10027000002070479140C2F1200320FA03F3194394
:1002800090407047064C074D06E0E06840F00103DF
:1002900094E8070098471034AC42F6D3FFF778FF94
:1002A000AC1D0008CC1D0008FEE7000030B500239F
:1002B00008E000BF01EB8304056824684FEA34447A
:1002C0002C605B1CB3EB520FF4D3D20703D002684F
:1002D00031F8231011800068006830BD70B500232C
:1002E0000BE000BF01EB83042568E4782DBA25F00C
:1002F000FF052543046825605B1CB3EB920FF1D327
:1003000094071BD002F00304012C03D1066811F8F6
:1003100023503570022C05D101EB83040568248835
:1003200064BA2C80D243920708D101EB83020368A0
:10033000118849BA198091780268117000680068C4
:1003400070BD00002DE9F041384C394D4FF4007874
:100350006078F8B14FF480718C00CE000F01012855
:1003600048D0022836D003285ED10022284600F06B
:10037000FDFA00224146284600F0F8FA0022214604
:10038000284600F0F3FA01223146284600F0EEFA42
:10039000002243E02749602201F1640000F0B2F836
:1003A00024496060096E884205D1012241462846F1
:1003B00000F0DCFA07E000224146284600F0D6FAB9
:1003C0002078401C2070207805282DD9BDE8F04108
:1003D00000F068BB0022284600F0C8FA002241461F
:1003E000284600F0C3FA01222146284600F0BEFA52
:1003F0000022C9E70022284600F0B8FA0022414650
:10040000284600F0B3FA00222146284600F0AEFA52
:1004100000223146284600F0A9FA01223946284632
:10042000BDE8F04100F0A2BABDE8F0810000002074
:100430000010004818000020014800F0FCB800003F
:10044000040100200B4B01681422994207D20A4B89
:100450001944B1FBF2F189000164084908E0054B39
:100460005B421944B1FBF2F189000164014908398A
:10047000C163704708040240F8FFFDBF000002405E
:1004800030B590F840500124AC40C56B6C600468F6
:1004900063604368102B036803D099600068C260F2
:1004A00030BD9A600068C16030BD704772B6FEE72B
:1004B000F0B504460020CB0711D01E235FF00106E3
:1004C00003F01F0706FA07F50D4201D15B1EF7D2B4
:1004D0007AB1082A0BD0102A06D0182A01D00120A0
:1004E000F0BD072BFBD204E0082BF8D201E0102B63
:1004F000F5D22368596121688B6823F018031343F0
:100500008B60F0BD70B5044600200223637723683A
:100510009D6845F001059D60236A012B0ED0022BDA
:1005200010D0032B11D104E0256851F820302B6046
:10053000401C9042F8D32068006806E02046FFF790
:10054000CDFE02E02046FFF7B1FE0121617770BDCC
:1005500010B5040010D0607F20B90020207720461D
:1005600000F030F802206077207938B1D4E9021227
:100570002046FFF79DFF48B1012010BD21681048BB
:1005800048612068816821F0180181606079A0B11C
:1005900020692168086120688168626921F0600132
:1005A0001143816020688168A26921F080011143B4
:1005B000816001206077002010BD4FF0FF30E8E738
:1005C000B71DC10408B500680649884208D106482D
:1005D000416941F040014161406900F040000090F4
:1005E00008BD0000003002400010024010B590F835
:1005F00021100024022903D004218163012418E082
:1006000001680A6822F00E020A6001680A6822F096
:1006100001020A6090F84020C36B012101FA02F246
:100620005A6080F82110002180F82010416B01B140
:100630008847204610BDF0B4C16B0D6801680C6896
:10064000066C042202FA06F32B420FD063070DD585
:100650000B689B0603D40B6823F004030B6090F82F
:1006600040108A40C16B4A60C16A1BE0022303FA52
:1006700006F72F424FF0000C4FF0010216D0A707EB
:1006800014D50C68A40605D40C6824F00A040C6088
:1006900080F8212090F840108B40C16B4B6080F8AF
:1006A00020C0816A002918D0F0BC08470823B34055
:1006B0002B4212D0230710D50B6823F00E030B60DA
:1006C00090F84010C36B02FA01F15960826380F820
:1006D000212080F820C0016BE4E7F0BC704770B5C2
:1006E000040021D0022084F821002268116843F61A
:1006F000F0708143D4E901031843D4E903352B4357
:10070000184363691843A3691843E369184308430E
:1007100010602046FFF796FE0020A063012184F8B8
:10072000211084F8200070BD012070BD70B5044612
:1007300090F82000002501280CD0012084F820002A
:1007400094F821600020012E06D084F820000225B4
:10075000284670BD022070BD022684F82160A06387
:100760002068066826F0010606602046FFF788FE2E
:10077000E06A00282068016802D041F00E0106E01E
:1007800041F00A0101602068016821F00401016064
:100790002068016841F001010160D9E72DE9F04FBF
:1007A000DFF8AC9100230325A9F1040B85B04FF0CD
:1007B000010C0F2709F1040AABF1040EBFE000BFE2
:1007C0000CFA03F6324075D00C7904F00304012CC6
:1007D00001D0022C1BD1846800945C0005FA04F857
:1007E0000494009C24EA08040094D1F80C80049C32
:1007F00008FA04F8009C48EA0408C0F80880446835
:10080000B4430E79C6F300169E40264346600C7929
:10081000E443A4070AD0C4684FEA430805FA08F67F
:10082000B4438E6806FA08F62643C6600C7904F0D5
:100830000304022C10D1DC0800EB84040294246A27
:100840005E074FEAD66807FA08F6B4430E6906FA5F
:1008500008F62643029C266204684FEA430805FA1C
:1008600008F6B4430E7906F0030606FA08F62643A6
:1008700006604C6814F4403F60D0364CA66946F0E0
:100880000106A661A46923F0030604F001040094A4
:10089000314C34440294A4689E074FEA167807FA54
:1008A00008F6B443B0F1904F05D02C4EB04204D1BD
:1008B000012612E042E000260FE0294EB04201D1AD
:1008C00002260AE0274EB04201D1032605E0264E5B
:1008D000B04201D1042600E0052606FA08F62643B8
:1008E000029CA660D9F800604C46D1F8048096437B
:1008F0005FEAC82800D516432660DAF8004056465D
:10090000D1F8048094435FEA882800D5144334600A
:10091000DBF800405E46D1F8048094435FEA8838F3
:1009200000D514433460DEF800407646D1F80480E8
:1009300094435FEAC83800D5144334605B1C0A68EE
:1009400032FA03F47FF43CAF05B0BDE8F08F00004D
:10095000080401400010024000000140000400486B
:1009600000080048000C0048001000480AB18161EE
:10097000704781627047000001488068704700003E
:1009800008000020024881680278114481607047A5
:1009900008000020074810B5016841F0100101600F
:1009A000032000F06DF8002000F006F800F024F8B5
:1009B000002010BD0020024070B50D4D04464FF4DC
:1009C0007A712878B1FBF0F00A490968B1FBF0F0C0
:1009D00000F02EFF48B9102C07D200222146501EED
:1009E00000F02EF800206C6070BD012070BD00008A
:1009F0000800002014000020094808B5816941F072
:100A000001018161816901F001010091C16941F039
:100A10008051C161C06900F08050009008BD0000A5
:100A200000100240002809DB00F01F020121914064
:100A30004009800000F1E020C0F80011704700007C
:100A4000F0B40E4B1B680C46C3F30223C3F1070539
:100A5000042D00D90425191D072901D2002300E027
:100A6000DB1E012606FA05F1491E214099409E40F1
:100A7000761E16403143F0BC01F001B90CED00E0E8
:100A8000064900F0070208684FF6FF03184040EAE5
:100A90000220034A10430860704700000CED00E09C
:100AA0000000FA05BFF34F8F05480168054A01F4BD
:100AB000E06111430160BFF34F8F00BFFDE700000D
:100AC0000CED00E00400FA052DE9F0470F460500A3
:100AD00069D04A4E306800F00700B84209D2306849
:100AE00020F0070038433060306800F00700B8425B
:100AF00059D12878424C800705D56068A96820F054
:100B0000F000084360602878C0073DD06968012084
:100B100001290DD0022923D05FF0020393FAA3F23A
:100B2000B2FA82F242F02002520904D0226803E0B5
:100B30004FF40033F2E7626A93FAA3F3B3FA83F354
:100B400003F01F03984002422DD0606820F003009C
:100B500008436060FFF710FF804641F288390CE0DF
:100B60004FF00073DAE700BFFFF706FFA0EB0801C4
:100B7000494502D90320BDE8F0876068696800F044
:100B80000C00B0EB810FEFD1306800F00700B842E5
:100B90000BD9306820F0070038433060306800F02F
:100BA0000700B84201D00120E5E72878400705D5C5
:100BB0006068E96820F4E060084360602878000716
:100BC00006D56068296920F4605040EAC100606081
:100BD00000F01EF86168F02292FAA2F201F0F00132
:100BE000B2FA82F2D140074A515CC8400649086017
:100BF00006480068FFF7E0FE0020BCE70020024046
:100C0000001002409C1D0008140000200C00002071
:100C1000164A10B55168164801F00C03042B20D079
:100C2000082B1ED14FF4701494FAA4F401F470133D
:100C3000B4FA84F4E3400F4CD26AE45C0F2393FAD5
:100C4000A3F302F00F02B3FA83F3DA40094B103337
:100C5000C9039A5C06D500231946FFF7B1FAA0FB39
:100C6000040110BD0448A4FB000110BD00100240A7
:100C700000127A007C1D000800093D002DE9F84FA4
:100C8000050071D02878FC4EC0074FF0010425D034
:100C900070686704C0F38100012807D07068C0F352
:100CA000810002281BD17068C00318D597FAA7F0FD
:100CB000B0FA80F040F02000400901D0306800E038
:100CC000706A97FAA7F1B1FA81F101F01F0104FAF5
:100CD00001F1084265D068680028D2D061E06868F8
:100CE000B0F5803F0BD010B1B0F5A02F17D0306811
:100CF00020F480303060306820F4802002E03068DA
:100D000040F480303060F06AA96820F00F0008439A
:100D1000F062686820B3FFF72FFE80460AE0306873
:100D200040F480203060EAE7FFF726FEA0EB0800E1
:100D3000642871D897FAA7F0B0FA80F040F020004C
:100D4000400901D0306800E0706A97FAA7F1B1FA63
:100D500081F101F01F0104FA01F10842E4D020E022
:100D6000FFF70AFE804607E0C2E000BFFFF704FE7F
:100D7000A0EB08006428DCD897FAA7F0B0FA80F05E
:100D800040F02000400901D0306800E0706A97FA16
:100D9000A7F1B1FA81F101F01F0104FA01F1084253
:100DA000E4D12878DFF8D48280074FF0000A4FF0B2
:100DB000020730D570684FF0F80B10F00C0F07D019
:100DC0007068C0F38100022827D17068C00324D462
:100DD00097FAA7F0B0FA80F040F02000400901D067
:100DE000306800E0706A97FAA7F1B1FA81F101F07A
:100DF0001F0104FA01F1084202D02869012877D1C5
:100E000030689BFAABF220F0F8016869B2FA82F21E
:100E10009040014331605AE064E1286988B394FA54
:100E2000A4F0B0FA80F048F82040FFF7A5FD814615
:100E300006E000BFFFF7A0FDA0EB090002289AD84A
:100E400097FAA7F0B0FA80F040F02000400901D0F6
:100E5000306800E0706A97FAA7F1B1FA81F101F009
:100E60001F0104FA01F10842E4D030689BFAABF2AA
:100E70006969B2FA82F220F0F800914008433060CC
:100E800025E0FFE794FAA4F0B0FA80F048F820A03B
:100E9000FFF772FD814605E0FFF76EFDA0EB09004C
:100EA0000228CCD897FAA7F0B0FA80F040F02000E2
:100EB000400901D0306800E0706A97FAA7F1B1FAF2
:100EC00081F101F01F0104FA01F10842E4D1287810
:100ED00000076CD5A869A8B394FAA4F0B0FA80F022
:100EE00008EB8000C0F88044FFF746FD814607E02C
:100EF000A4E100BFFFF740FDA0EB090002289ED847
:100F000097FAA7F0B0FA80F040F06000B4EB501F01
:100F100001D130680BE097FAA7F0B0FA80F040F00A
:100F20006000B7EB501F01D1306A00E0706A97FA99
:100F3000A7F1B1FA81F101F01F0104FA01F21042A8
:100F4000D8D034E0FFE794FAA4F1B1FA81F108EBCC
:100F50008101C1F880A4FFF70FFD814606E000BFC4
:100F6000FFF70AFDA0EB090002289AD897FAA7F02C
:100F7000B0FA80F040F06000B4EB501F01D130684F
:100F80000BE097FAA7F0B0FA80F040F06000B7EB02
:100F9000501F01D1306A00E0706A97FAA7F1B1FAE8
:100FA00081F101F01F0104FA01F21042D8D1287832
:100FB000400768D5F0694FF00009C00009D4F06916
:100FC00040F08050F061F0694FF0010900F080506E
:100FD00000902B480168C90512D4016841F4807162
:100FE0000160FFF7C9FC834606E000BFFFF7C4FCC1
:100FF000A0EB0B00642875D821480068C005F5D522
:10100000E86801280AD008B1052811D0306A20F01C
:1010100001003062306A20F0040002E0306A40F0E3
:1010200001003062E86868B3FFF7A6FC83460DE074
:10103000306A40F004003062F0E700BFFFF79CFC2C
:10104000A0EB0B0141F2883081424BD897FAA7F010
:10105000B0FA80F040F04000B4EB501F01D130688E
:1010600013E097FAA7F0B0FA80F040F04000B7EB39
:10107000501F09D1306A08E00010024000004242CF
:10108000007000400CE040E0706A97FAA7F1B1FAF6
:1010900081F101F01F0104FA01F21042CED02DE0DF
:1010A000FFF76AFC834607E0FFF766FCA0EB0B0145
:1010B00041F28830814215D897FAA7F0B0FA80F053
:1010C00040F04000B4EB501F01D130680CE097FABB
:1010D000A7F0B0FA80F040F04000B7EB501F02D10B
:1010E000306A01E083E0706A97FAA7F1B1FA81F102
:1010F00001F01F0104FA01F21042D5D1B9F1000F3D
:1011000003D0F06920F08050F061E86980B3716825
:10111000C1F38101022977D04FF080714F0002287E
:10112000504609D091FAA1F1B1FA81F148F82100B5
:10113000FFF722FC05465DE0894691FAA1F1B1FA7C
:1011400081F1C24648F82100FFF716FC804605E011
:10115000FFF712FCA0EB0800022848D897FAA7F086
:10116000B0FA80F040F02000400902D0306801E081
:1011700066E0706A97FAA7F1B1FA81F101F01F01F8
:1011800004FA01F10842E3D1D5E908100843716877
:1011900021F474110843706099FAA9F0B0FA80F054
:1011A0004AF82040FFF7E8FB054604E0FFF7E4FBC0
:1011B000401B02281BD897FAA7F0B0FA80F040F045
:1011C0002000400901D0306800E0706A97FAA7F16A
:1011D000B1FA81F101F01F0104FA01F10842E5D0F2
:1011E0002EE000BFFFF7C8FB401B022802D90320F6
:1011F000BDE8F88F97FAA7F0B0FA80F040F0200031
:10120000400902D0306801E00BE0706A97FAA7F15C
:10121000B1FA81F101F01F0104FA01F10842E1D1B4
:101220000EE00128E4D070682A6A00F4803191420F
:1012300004D1696A00F47010884201D00120D7E718
:101240000020D5E77047000038B5016804464A68B9
:101250008868C043430606D5C30704D1D3435B0661
:1012600001D4E16C05E0830708D4D3431B0605D401
:10127000216D01B02046BDE830400847830603D504
:10128000430601D5C30551D4D3439B064ED4430630
:101290000AD494F85D30032B49D0236E43F0040345
:1012A0002366CB688B680093830609D4236E43F0D2
:1012B000010323668B6800930B6823F040030B60E7
:1012C000C00506D4206E40F00800206620688068C3
:1012D0000090206E002829D02068416821F0E001AC
:1012E0004160012084F85D00900701D4D00722D02E
:1012F0002068416821F003014160114DA06D40B1AB
:101300004563A06DFFF772F918B1206E40F0400000
:101310002066606D002809D04563606DFFF766F9AF
:10132000002803D0206E40F04000206638BDC86819
:101330008868009038BD2046FFF784FF38BD000064
:10134000B118000870B5040009D0606A002540B1EA
:1013500025616561A56294F85D0040B10CE0012053
:1013600070BD6068B0F5827FF4D0E561F2E784F883
:101370005C50204600F05CF8022084F85D00206894
:10138000016821F040010160E1684FF4E0629142A0
:1013900001D9002001E04FF48050B1F5706F02D008
:1013A000914200D0A562A188228901F4827102F4E1
:1013B00004421143227C02F002021143227D02F01A
:1013C00001021143228B02F400721143227F02F0CA
:1013D0003802114394F8202002F080021143228D3C
:1013E00002F40052114322681160A169042202EA4A
:1013F000114194F8242000F4805002F010021143AF
:1014000094F8342002F008021143A28902F47062B9
:1014100011430143206841602068C16921F40061E3
:10142000C1612566012084F85D00002070BD0000C8
:1014300070B586B0064614216846FEF709FF2049BC
:10144000306888423AD11F49886940F480508861E9
:10145000886900F480500590486940F40030486184
:101460004869002500F400300590F020009002202B
:10147000CDE90105032003900520049069464FF053
:101480009040FFF78BF9114C0F48C4E9000580200C
:10149000C4E9025025616561A5612046E561FFF759
:1014A0001EF908B1FFF702F8B465002211462320A7
:1014B0006662FFF7C5FA2320FFF7B4FA06B070BDE5
:1014C00000300140001002401C00024004010020D6
:1014D0002DE9F041044690F85D00002635460128CC
:1014E00001D002269EE0A068042718B96368B3F50E
:1014F000827F18D094F85C30012B1DD0012384F832
:101500005C3089B382B384F85D7025662164A4F8E9
:101510004420A4F84620E5642565A587E587B0F555
:10152000004F0CD015E084F85D702046BDE8F04116
:1015300013460A4600F092B80220BDE8F081206808
:10154000016821F0400101602068016821F48041B8
:101550000160E0684FF4E0624FF48061904205D88A
:10156000A06D4069884201D101265BE02068476890
:1015700027F400574760E0689042206804D941682A
:1015800021F4805141601BE0426842F48052426085
:10159000A06D4069884213D12068416821F48051D0
:1015A0004160B4F84600C0072068416821D041F48A
:1015B00000514160B4F8460003EB5000A4F8460027
:1015C000A16D1A48C862A16D19488862A16D1948B9
:1015D0000863A06D4563B4F846302168226C0C3175
:1015E000A06DFFF7A3F858B1206E40F01000206600
:1015F000BAE721F400514160B4F846004008DDE745
:1016000020680168490603D4016841F04001016087
:101610002068416841F0200141602068416841F044
:101620000101416084F85C50304686E7E518000807
:10163000F9180008C318000810B5FEF783FE044926
:10164000642201F18800FFF743FF0249487010BD92
:101650001800002000000020704700002DE9F04134
:10166000044690F85C00002601280DD0012084F883
:101670005C0094F85D700025D4F804C0012F0FD0F1
:10168000BCF5827F0AD102E00220BDE8F081D4F8E7
:1016900008C0BCF1000F01D1042F01D00226B6E032
:1016A000F1B1EAB1E3B194F85D70042F02D00527DF
:1016B00084F85D702566A163A387E3872264A4F89C
:1016C0004430A4F84630E5642565E1684FF4E063F2
:1016D0004FF48062994205D8A16D4969914201D1C8
:1016E000012694E021684F6827F4C0474F60E16805
:1016F000994205D92068416821F4805141602DE06C
:1017000021684B6843F480534B60616D4969914295
:101710000CD194F83C10C90721684B6837D043F4CA
:1017200080434B60E18F00EB5101E187A16D496976
:10173000914213D121684A6822F480524A60B4F879
:101740004610C90729D021684A6842F400524A600D
:10175000B4F8461000EB5100A4F8460094F85D0080
:10176000042823D0A16D2C48C8622C48A16D886242
:10177000A16D2B480863A06D4563B4F8463021681D
:10178000226C0C31A06DFEF7D1FF48BB13E023F4AF
:1017900080434B60E18F4908C7E72068416821F426
:1017A00000514160B4F846004008D5E7A16D1D48DE
:1017B000C8621D48DAE72068416841F001014160D4
:1017C000606DC562606D8562606D0563606D4563C7
:1017D000E38F2268A16B0C32606DFEF7A7FF20B18A
:1017E000206E40F0100020667AE720680168490604
:1017F00003D4016841F0400101602068416841F074
:10180000200141602068416841F00201416084F894
:101810005C50304639E70000EF18000865190008F1
:10182000C3180008E5180008F91800087047704749
:1018300010B5401EB0F1807F01D3012010BD4FF0E4
:10184000E02460610F21601700F019FA0020A06108
:1018500007202061002010BDFEE700000E4810B5F3
:101860000C49016000214FF4E0624160C0E90212BE
:10187000016141618161016207224162C0E90A128E
:1018800001634163FFF75EFD002801D072B6FEE7F9
:1018900010BD000000300140A0000020FEE7FEE780
:1018A000704700000148FFF7CFBC0000A0000020F7
:1018B00010B5406A0021A0F84610C187FFF7C2FCAE
:1018C00010BD10B5406A01684A6822F003024A6000
:1018D000016E41F010010166012180F85D10FFF7F3
:1018E000B1FC10BD10B5406AFFF7B6FE10BD10B5D3
:1018F000406AFFF79CFF10BD70B50546446AFFF7CC
:101900003BF8024628680068800627D420684168B2
:1019100021F020014160A06818B96068B0F5827FAD
:1019200017D02068416821F0010141606421204600
:1019300000F046F808B1202020660020A4F84600F8
:10194000012084F85D00206E40B12046FFF77AFC4C
:1019500070BD2068416821F00301E6E72046FFF7EB
:101960006BFE70BD70B50546446AFFF705F8024688
:101970002868006880061FD42068416821F0200193
:1019800041606421204600F055F818B1206E40F007
:10199000200020662068416821F00301416000209A
:1019A000E087A4F84600012084F85D00206E18B19D
:1019B0002046FFF747FC70BD2046FFF737FF70BD9C
:1019C0002DE9F843044640684FF48276154689466F
:1019D0004FF400474FF48068B04209D1A068B84284
:1019E00001D0404504D12068016821F04001016028
:1019F0004B46002280212046009500F0AFF880B9C8
:101A00006068B04214D1A068B84201D040450FD1FF
:101A10004B4600224FF4C0612046009500F02EF89E
:101A200030B1206E40F0200020660320BDE8F8832E
:101A30000020FBE7F8B515460E460B46009204461B
:101A400000224FF4C05100F019F888B93346002243
:101A500080212046009500F081F848B933460022E5
:101A60004FF4C0612046009500F008F8002804D02B
:101A7000206E40F0200020660320F8BD2DE9FE4FC7
:101A80004FF0000A984617460E4604460C9D8DF806
:101A900004A0FEF771FF411BA8EB0105FEF76CFFE8
:101AA000814620684FF4C06B0C3002902A480068D1
:101AB000C0EBC00000EB8000000D6843009043E0E5
:101AC0005E4506D12FB9029800788DF804009DF884
:101AD0000400B8F1FF3F37D0FEF74EFFA0EB09003E
:101AE000A84203D215B1009858B32BE02068416892
:101AF00021F0E00141606068B0F5827F0BD1A06801
:101B0000B0F5004F02D0B0F5806F04D120680168B5
:101B100021F040010160A06AB0F5005F09D12068A2
:101B2000016821F4005101602068016841F400510E
:101B30000160012084F85D0084F85CA00320BDE80A
:101B4000FE8F0025401E0090206880683040B8421B
:101B5000B6D10020F3E70000140000202DE9F8437F
:101B60001E46914688460446089DFEF705FF401B29
:101B7000351AFEF701FF074625480068C0F3CB3051
:101B8000684338E0701C37D0FEF7F6FEC01BA84251
:101B900003D215B1009860B32CE02068416821F0B1
:101BA000E00141606068B0F5827F0BD1A068B0F5BC
:101BB000004F02D0B0F5806F04D12068016821F099
:101BC00040010160A06AB0F5005F09D1206801689A
:101BD00021F4005101602068016841F40051016066
:101BE000012084F85D00002084F85C000320BDE83B
:101BF000F8830025401E00902068816838EA0100C3
:101C000004D000214945BDD10020F0E70121F9E7CA
:101C1000140000207047FEF7B5BE10B590B0282123
:101C20006846FEF715FB14210AA8FEF711FB0220F7
:101C3000009001200490102000240590079468462D
:101C4000FFF71CF808B172B6FEE70F20CDE90A04D1
:101C50000C940D9400210AA80E94FEF735FF00287D
:101C600001D072B6FEE710B010BD00000248016856
:101C700041F470010160704788ED00E0FEE709075C
:101C8000090E002804DB00F1E02080F80014704702
:101C900000F00F0000F1E02080F8141D704702E012
:101CA00008C8121F08C1002AFAD1704770470020E7
:101CB00001E001C1121F002AFBD1704786B0FEF778
:101CC00069FEFFF7AAFF14216846FEF7C1FA264C09
:101CD000606940F400306061606900F40030059094
:101CE000606940F4001060616069204F00F40010EA
:101CF0004FF4F8550590002229463846FEF736FE87
:101D00000126CDE90056002502956946384603951F
:101D1000FEF744FD606940F00100606160690022E7
:101D200000F00100009011460C20FEF789FE0C2007
:101D3000FEF778FEFFF792FD0E480D490160057130
:101D40004571456106628561FEF702FC08B172B615
:101D5000FEE708496422643901F18800FFF7B8FB07
:101D600005494870FEE700000010024000100048DE
:101D7000003002407C000020000000200203040527
:101D8000060708090A0B0C0D0E0F101001020304C0
:101D900005060708090A0B0C0D0E0F1000000000C5
:101DA000000000000102030406070809CC1D00081A
:101DB00000000020180000009E1C0008E41D000820
:101DC0001800002030050000AE1C000800000000D4
:101DD00000000000010000001000000000000000F2
:041DE00000127A0073
:040000050800018965
:00000001FF
