:020000040800F2
:10000000E80500209D01000827180008B317000824
:1000100025180008D5020008F51C000800000000A3
:100020000000000000000000000000002B18000885
:100030006F03000800000000291800082D180008B0
:10004000B7010008B7010008B7010008B7010008B0
:10005000B7010008B7010008B7010008B7010008A0
:10006000B7010008B7010008B7010008B701000890
:10007000B7010008B7010008B7010008B701000880
:10008000B7010008B7010008B7010008B701000870
:10009000B7010008B7010008B7010008B701000860
:1000A000B7010008B7010008B7010008B701000850
:1000B000B7010008B7010008B7010008B701000840
:1000C000B7010008B7010008B7010008B701000830
:1000D000B7010008DD1C0008E91C0008B701000892
:1000E000B7010008B7010008B7010008B701000810
:1000F000B7010008B7010008B7010008B701000800
:10010000000000000000000000000000B70100082F
:10011000B7010008B7010008B7010008B7010008DF
:10012000B7010008B7010008B7010008B7010008CF
:10013000B7010008B701000800000000000000003F
:10014000B7010008B7010008B7010008000000006F
:10015000000000000000000000000000000000009F
:100160000000000000000000B7010008B70100080F
:10017000B7010008000000000000000000000000BF
:1001800000000000B7010008DFF80CD000F090F884
:100190000048004759200008E8050020064880472D
:1001A00006480047FEE7FEE7FEE7FEE7FEE7FEE75C
:1001B000FEE7FEE7FEE7FEE7A91800088901000850
:1001C0002DE9F05F0546002092469B46884606468C
:1001D000814640241BE0284641464746224600F01F
:1001E00020F853465A46C01A914110D3114618467A
:1001F000224600F04EF82D1A67EB01084F462246C2
:100200000120002100F045F817EB00094E41201EA7
:10021000A4F10104DFDC484631462A464346BDE8E6
:10022000F09F202A04DB203A21FA02F000217047D7
:1002300021FA02F3D040C2F120029140084319464E
:100240007047D2B201E000F8012B491EFBD2704783
:100250000022F6E710B513460A4604461946FFF792
:10026000F0FF204610BD30B50B460146002020228D
:10027000012409E021FA02F59D4205D303FA02F5B3
:10028000491B04FA02F52844151EA2F10102F1DC13
:1002900030BD202A04DB203A00FA02F1002070472A
:1002A0009140C2F1200320FA03F3194390407047B4
:1002B000064C074D06E0E06840F0010394E80700B3
:1002C00098471034AC42F6D3FFF762FF342300089E
:1002D00054230008FEE7000030B5002308E000BF0B
:1002E00001EB8304056824684FEA34442C605B1CEE
:1002F000B3EB520FF4D3D20703D0026831F82310C6
:1003000011800068006830BD70B500230BE000BFAD
:1003100001EB83042568E4782DBA25F0FF05254319
:10032000046825605B1CB3EB920FF1D394071BD0DC
:1003300002F00304012C03D1066811F82350357034
:10034000022C05D101EB83040568248864BA2C8053
:10035000D243920708D101EB83020368118849BA9E
:1003600019809178026811700068006870BD70474C
:10037000F0B504460020CB0711D01E235FF0010624
:1003800003F01F0706FA07F50D4201D15B1EF7D2F5
:100390007AB1082A0BD0102A06D0182A01D00120E1
:1003A000F0BD072BFBD204E0082BF8D201E0102BA4
:1003B000F5D22368596121688B6823F01803134331
:1003C0008B60F0BD70B5044600200223637723687C
:1003D0009D6845F001059D60236A012B0ED0022B1C
:1003E00010D0032B11D104E0256851F820302B6088
:1003F000401C9042F8D32068006806E02046FFF7D2
:1004000083FF02E02046FFF767FF0121617770BD9F
:1004100010B5040010D0607F20B90020207720465E
:1004200000F030F802206077207938B1D4E9021268
:100430002046FFF79DFF48B1012010BD21681048FC
:1004400048612068816821F0180181606079A0B15D
:1004500020692168086120688168626921F0600173
:100460001143816020688168A26921F080011143F5
:10047000816001206077002010BD4FF0FF30E8E779
:10048000B71DC10408B500680649884208D106486E
:10049000416941F040014161406900F04000009035
:1004A00008BD0000003002400010024010B590F876
:1004B00021100022022905D00421816380F8202028
:1004C000012010BD01680B6823F00E030B6001686A
:1004D0000B6823F001030B6090F84030C46B0121DE
:1004E00001FA03F3636080F8211080F820200020D7
:1004F00010BD10B590F821100024022903D004216A
:100500008163012418E001680A6822F00E020A6083
:1005100001680A6822F001020A6090F84020C36B6B
:10052000012101FA02F25A6080F82110002180F8BE
:100530002010416B01B18847204610BD2DE9F04FD6
:10054000DFF8AC9100230325A9F1040B85B04FF02F
:10055000010C0F2709F1040AABF1040EBFE000BF44
:100560000CFA03F6324075D00C7904F00304012C28
:1005700001D0022C1BD1846800945C0005FA04F8B9
:100580000494009C24EA08040094D1F80C80049C94
:1005900008FA04F8009C48EA0408C0F80880446897
:1005A000B4430E79C6F300169E40264346600C798C
:1005B000E443A4070AD0C4684FEA430805FA08F6E2
:1005C000B4438E6806FA08F62643C6600C7904F038
:1005D0000304022C10D1DC0800EB84040294246A8A
:1005E0005E074FEAD66807FA08F6B4430E6906FAC2
:1005F00008F62643029C266204684FEA430805FA7F
:1006000008F6B4430E7906F0030606FA08F6264308
:1006100006604C6814F4403F60D0364CA66946F042
:100620000106A661A46923F0030604F00104009406
:10063000314C34440294A4689E074FEA167807FAB6
:1006400008F6B443B0F1904F05D02C4EB04204D11F
:10065000012612E042E000260FE0294EB04201D10F
:1006600002260AE0274EB04201D1032605E0264EBD
:10067000B04201D1042600E0052606FA08F626431A
:10068000029CA660D9F800604C46D1F804809643DD
:100690005FEAC82800D516432660DAF800405646BF
:1006A000D1F8048094435FEA882800D5144334606D
:1006B000DBF800405E46D1F8048094435FEA883856
:1006C00000D514433460DEF800407646D1F804804B
:1006D00094435FEAC83800D5144334605B1C0A6851
:1006E00032FA03F47FF43CAF05B0BDE8F08F0000B0
:1006F00008040140001002400000014000040048CE
:1007000000080048000C00480010004801488068BC
:1007100070470000180000200248816802781144E8
:100720008160704718000020074810B5016841F04B
:1007300010010160032000F06DF8002000F006F8C1
:1007400000F024F8002010BD0020024070B50D4DCF
:1007500004464FF47A712878B1FBF0F00A49096831
:10076000B1FBF0F000F062FD48B9102C07D2002276
:100770002146501E00F02EF800206C6070BD012054
:1007800070BD00001800002024000020094808B5B2
:10079000816941F001018161816901F001010091EC
:1007A000C16941F08051C161C06900F08050009082
:1007B00008BD000000100240002809DB00F01F0205
:1007C000012191404009800000F1E020C0F80011B3
:1007D00070470000F0B40E4B1B680C46C3F30223B5
:1007E000C3F10705042D00D90425191D072901D2DD
:1007F000002300E0DB1E012606FA05F1491E214018
:1008000099409E40761E16403143F0BC01F084BAF8
:100810000CED00E0064900F0070208684FF6FF0300
:10082000184040EA0220034A104308607047000065
:100830000CED00E00000FA052DE9F84F04460068D1
:100840000026804DC0036ED5E869C00008D4E86971
:1008500040F08050E861E869012600F08050009087
:1008600079480168C90512D40168804641F4807155
:100870000160FFF74BFF074605E000BFFFF746FFAB
:10088000C01B642835D8D8F80000C005F6D5286A02
:1008900010F4407053D0A18801F4407181424ED0D1
:1008A000286A4FF4803191FAA1F2B2FA82F29700ED
:1008B000664A4FF00108174420F44070C7F80084DE
:1008C00091FAA1F1B1FA81F102EB81010023C1F8A3
:1008D00000342862C00732D0FFF718FF074641F204
:1008E000883A4FF0020907E0FFF710FFC11B51459E
:1008F00002D90320BDE8F88F99FAA9F0B0FA80F088
:1009000040F040024946B8EB521F01D12A680CE082
:1009100091FAA1F2B2FA82F242F04002B1EB521F18
:1009200002D12A6A01E015E06A6A99FAA9F1B1FADE
:1009300081F101F01F0108FA01F00242D4D0286AC7
:10094000616820F44070084328621EB1E86920F015
:100950008050E8612078C00705D0286BA16820F09E
:100960000300084328632078800705D5286BE168D9
:1009700020F44030084328632078400705D5286BD1
:10098000216920F44020084328632078800605D59B
:10099000286BE16920F01000084328632068800379
:1009A00005D56868A16B20F4800008436860207852
:1009B000400605D5286B216A20F0200008432863F3
:1009C0002078000705D5286B616920F440100843A2
:1009D00028632078C00605D5286BA16920F4400063
:1009E000084328632088800505D56868E16A20F4FB
:1009F0000000084368602078000605D5E86A616A4F
:100A000020F4F8700843E8622088C00505D5E86A3C
:100A1000A16A20F478500843E8622088C00405D514
:100A2000286B216B20F480700843286320888004A1
:100A300005D5286B616B20F4007008432863002003
:100A400058E70000001002400070004000004242E1
:100A50002DE9F0470F46050069D04A4E306800F096
:100A60000700B84209D2306820F0070038433060F0
:100A7000306800F00700B84259D12878424C80070E
:100A800005D56068A96820F0F00008436060287808
:100A9000C0073DD06968012001290DD0022923D06B
:100AA0005FF0020393FAA3F2B2FA82F242F020025C
:100AB000520904D0226803E04FF40033F2E7626A7F
:100AC00093FAA3F3B3FA83F303F01F0398400242AF
:100AD0002DD0606820F0030008436060FFF716FE29
:100AE000804641F288390CE04FF00073DAE700BF2E
:100AF000FFF70CFEA0EB0801494502D90320BDE831
:100B0000F0876068696800F00C00B0EB810FEFD1EE
:100B1000306800F00700B8420BD9306820F00700B9
:100B200038433060306800F00700B84201D001203F
:100B3000E5E72878400705D56068E96820F4E060BB
:100B4000084360602878000706D56068296920F4AA
:100B5000605040EAC100606000F04EF86168F02229
:100B600092FAA2F201F0F001B2FA82F2D140074A01
:100B7000515CC8400649086006480068FFF7E6FD7A
:100B80000020BCE700200240001002401A230008A9
:100B9000240000201C00002008480949006849681A
:100BA0004FF4E06292FAA2F201F4E061B2FA82F24A
:100BB000D140044A515CC840704700002400002026
:100BC000001002402A2300080848094900684968C3
:100BD0004FF4605292FAA2F201F46051B2FA82F23A
:100BE000D140044A515CC8407047000024000020F6
:100BF000001002402A230008164A10B55168164812
:100C000001F00C03042B20D0082B1ED14FF47014DC
:100C100094FAA4F401F47013B4FA84F4E3400F4C92
:100C2000D26AE45C0F2393FAA3F302F00F02B3FA43
:100C300083F3DA40094B1033C9039A5C06D50023CD
:100C40001946FFF7BDFAA0FB040110BD0448A4FB40
:100C5000000110BD0010024000127A00FA220008C4
:100C600000093D002DE9F84F050071D02878FC4EB1
:100C7000C0074FF0010425D070686704C0F38100FD
:100C8000012807D07068C0F3810002281BD170686A
:100C9000C00318D597FAA7F0B0FA80F040F0200012
:100CA000400901D0306800E0706A97FAA7F1B1FA04
:100CB00081F101F01F0104FA01F1084265D0686872
:100CC0000028D2D061E06868B0F5803F0BD010B149
:100CD000B0F5A02F17D0306820F480303060306835
:100CE00020F4802002E0306840F480303060F06A08
:100CF000A96820F00F000843F062686820B3FFF78E
:100D000005FD80460AE0306840F480203060EAE764
:100D1000FFF7FCFCA0EB0800642871D897FAA7F055
:100D2000B0FA80F040F02000400901D0306800E0C7
:100D3000706A97FAA7F1B1FA81F101F01F0104FA84
:100D400001F10842E4D020E0FFF7E0FC804607E034
:100D5000C2E000BFFFF7DAFCA0EB08006428DCD893
:100D600097FAA7F0B0FA80F040F02000400901D0D7
:100D7000306800E0706A97FAA7F1B1FA81F101F0EA
:100D80001F0104FA01F10842E4D12878DFF8D48287
:100D900080074FF0000A4FF0020730D570684FF01F
:100DA000F80B10F00C0F07D07068C0F38100022818
:100DB00027D17068C00324D497FAA7F0B0FA80F066
:100DC00040F02000400901D0306800E0706A97FAD6
:100DD000A7F1B1FA81F101F01F0104FA01F1084213
:100DE00002D02869012877D130689BFAABF220F055
:100DF000F8016869B2FA82F29040014331605AE02A
:100E000064E1286988B394FAA4F0B0FA80F048F855
:100E10002040FFF77BFC814606E000BFFFF776FC31
:100E2000A0EB090002289AD897FAA7F0B0FA80F050
:100E300040F02000400901D0306800E0706A97FA65
:100E4000A7F1B1FA81F101F01F0104FA01F10842A2
:100E5000E4D030689BFAABF26969B2FA82F220F012
:100E6000F80091400843306025E0FFE794FAA4F0D1
:100E7000B0FA80F048F820A0FFF748FC814605E072
:100E8000FFF744FCA0EB09000228CCD897FAA7F0A2
:100E9000B0FA80F040F02000400901D0306800E056
:100EA000706A97FAA7F1B1FA81F101F01F0104FA13
:100EB00001F10842E4D1287800076CD5A869A8B3ED
:100EC00094FAA4F0B0FA80F008EB8000C0F88044F7
:100ED000FFF71CFC814607E0A4E100BFFFF716FC0A
:100EE000A0EB090002289ED897FAA7F0B0FA80F08C
:100EF00040F06000B4EB501F01D130680BE097FA6E
:100F0000A7F0B0FA80F040F06000B7EB501F01D1BD
:100F1000306A00E0706A97FAA7F1B1FA81F101F046
:100F20001F0104FA01F21042D8D034E0FFE794FA2E
:100F3000A4F1B1FA81F108EB8101C1F880A4FFF7B7
:100F4000E5FB814606E000BFFFF7E0FBA0EB0900F0
:100F500002289AD897FAA7F0B0FA80F040F0600023
:100F6000B4EB501F01D130680BE097FAA7F0B0FA4C
:100F700080F040F06000B7EB501F01D1306A00E014
:100F8000706A97FAA7F1B1FA81F101F01F0104FA32
:100F900001F21042D8D12878400768D5F0694FF0A7
:100FA0000009C00009D4F06940F08050F061F06998
:100FB0004FF0010900F0805000902B480168C905EE
:100FC00012D4016841F480710160FFF79FFB8346F2
:100FD00006E000BFFFF79AFBA0EB0B00642875D872
:100FE00021480068C005F5D5E86801280AD008B195
:100FF000052811D0306A20F001003062306A20F0FC
:10100000040002E0306A40F001003062E86868B332
:10101000FFF77CFB83460DE0306A40F0040030624D
:10102000F0E700BFFFF772FBA0EB0B0141F2883045
:1010300081424BD897FAA7F0B0FA80F040F0400018
:10104000B4EB501F01D1306813E097FAA7F0B0FA63
:1010500080F040F04000B7EB501F09D1306A08E043
:101060000010024000004242007000400CE040E0EE
:10107000706A97FAA7F1B1FA81F101F01F0104FA41
:1010800001F21042CED02DE0FFF740FB834607E08F
:10109000FFF73CFBA0EB0B0141F28830814215D8F1
:1010A00097FAA7F0B0FA80F040F04000B4EB501F80
:1010B00001D130680CE097FAA7F0B0FA80F040F068
:1010C0004000B7EB501F02D1306A01E083E0706A44
:1010D00097FAA7F1B1FA81F101F01F0104FA01F2C8
:1010E0001042D5D1B9F1000F03D0F06920F0805043
:1010F000F061E86980B37168C1F38101022977D09A
:101100004FF080714F000228504609D091FAA1F1AA
:10111000B1FA81F148F82100FFF7F8FA05465DE0E1
:10112000894691FAA1F1B1FA81F1C24648F821004D
:10113000FFF7ECFA804605E0FFF7E8FAA0EB0800BD
:10114000022848D897FAA7F0B0FA80F040F02000C3
:10115000400902D0306801E066E0706A97FAA7F1B2
:10116000B1FA81F101F01F0104FA01F10842E3D163
:10117000D5E908100843716821F4741108437060C0
:1011800099FAA9F0B0FA80F04AF82040FFF7BEFAC9
:10119000054604E0FFF7BAFA401B02281BD897FA6D
:1011A000A7F0B0FA80F040F02000400901D030688C
:1011B00000E0706A97FAA7F1B1FA81F101F01F011E
:1011C00004FA01F10842E5D02EE000BFFFF79EFAD5
:1011D000401B022802D90320BDE8F88F97FAA7F038
:1011E000B0FA80F040F02000400902D0306801E001
:1011F0000BE0706A97FAA7F1B1FA81F101F01F01D3
:1012000004FA01F10842E1D10EE00128E4D070684F
:101210002A6A00F48031914204D1696A00F47010A6
:10122000884201D00120D7E70020D5E710B5401E45
:10123000B0F1807F01D3012010BD4FF0E024606148
:101240000F21601700F068FD0020A06107202061D9
:10125000002010BD70477047704700002DE9F04135
:1012600002680446D0691168936840F60F05284269
:101270004FF000054FF0020605D187067ED58F0698
:101280007CD5A16E2AE1DFF884C203F0010701EAF0
:101290000C0C57EA0C0C71D05FEAC07C0CD05FEAF2
:1012A000C15C09D54FF0010CC2F820C0D4F88420ED
:1012B00042F00102C4F88420820709D5DA0707D07A
:1012C00022681662D4F8842042F00402C4F8842014
:1012D00042070AD5DA0708D0236804221A62D4F834
:1012E000842042F00202C4F8842002070CD501F0E9
:1012F00020023A4308D0236808221A62D4F88420D6
:1013000042F00802C4F8842002050BD54A0109D531
:1013100023684FF400621A62D4F8842042F020025D
:10132000C4F88420D4F88420002A36D0800605D55D
:10133000880603D5A16E09B120468847D4F88400F9
:1013400021688968490602D410F0280F27D020466A
:1013500000F074FB2068806840061BD520680830C8
:1013600050E8001F21F0400140E80012002AF5D1AA
:10137000606F78B166494163606F00E015E0FFF788
:10138000B8F8002809D0606F416B00E02046BDE846
:10139000F04108472046FFF75FFFBDE8F081204697
:1013A000FFF75AFFC4F88450F7E7D4F860C020274D
:1013B000BCF1010F7DD15FEAC06C7ED55FEAC16CE4
:1013C0007BD51020106220688068400642D5616F8E
:1013D000086840680004000CDFD0B4F8582082424E
:1013E000DBD9A4F85A00886920282BD0216851E85D
:1013F000000F20F4807041E80002002AF6D1206836
:10140000083050E8001F21F0010140E80012002AD6
:10141000F5D12068083050E8001F21F0400140E875
:101420000012002AF5D1C4F880702566206850E8C3
:10143000001F21F0100140E80012002AF6D1606F71
:10144000FFF734F86666B4F85800B4F85A10401A3A
:1014500081B22CE0B4F85800B4F85A10401A81B2A6
:10146000B4F85A00002898D0002996D0226852E893
:10147000000F20F4907042E80003002BF6D12068A2
:10148000083050E8002F22F0010240E80023002B32
:10149000F5D1C4F880702566A566206850E8002F55
:1014A00022F0100240E80023002BF6D166662046A9
:1014B00000E002E0FFF7CEFE6FE7C60209D55B024F
:1014C00007D54FF4801010622046BDE8F041FFF7C9
:1014D000C2BE020606D50A0604D5E16E00297FF4D5
:1014E00055AF5AE74006E7D54806E5D520460268DD
:1014F00052E8001F21F0400142E80013002BF6D112
:10150000C767C56600F054F947E7000020010004F2
:10151000291A000810B5040002D0E06F10B107E0EE
:10152000012010BD002084F87800204600F026F845
:101530002420E0672068016821F001010160204655
:1015400000F0A2FA0128ECD0606A10B1204600F049
:10155000B3F92068416821F49041416020688168B6
:1015600021F02A0181602068016841F001010160D9
:101570002046BDE8104000F003BA0000F0B587B087
:10158000044614216846FEF763FE284F26680022B1
:1015900027490223032407254FF09040BE421FD164
:1015A0008E6946F480468E618E6906F48046059603
:1015B0004E6946F400364E61496902AE01F40031CD
:1015C00005916102CDE9001386E834006946FEF713
:1015D000B5FF002211462520FFF7FCF8252021E069
:1015E000144FBE4220D1CE6946F40036CE61CE699A
:1015F00006F4003605964E6946F400364E61496998
:1016000002AE01F4003105910C21CDE9001386E80A
:1016100034006946FEF792FF002211462620FFF7AC
:10162000D9F82620FFF7C8F807B0F0BD0038014010
:1016300000100240004400402DE9F84F0446D0F865
:1016400080009B4616460D46202802D00220BDE8A9
:10165000F88FC5B1BEB10027C4F884702220C4F849
:10166000800027661C34FFF751F8A6878246E6877C
:1016700054F8140C4FF48052FF211C3C904207D1C7
:10168000236913B116E00120E1E740F2FF1111E0F8
:1016900068B1A4F85C7000BFB4F85C704FF020082B
:1016A000904201D1206940B12E46002506E0236911
:1016B00003B17F21A4F85C10EEE7002607F0FF09D4
:1016C000B4F85A00F0B15346002220212046CDF84C
:1016D00000B000F0BDFA18B1C4F880800320B6E76E
:1016E0002068808C56B100EA090006F8010B00BFA3
:1016F000B4F85A00401EA4F85A00E1E7384025F833
:10170000020BF5E7C4F880800020A0E72DE9F8433C
:101710000446C06F984616460D46202802D0022087
:10172000BDE8F88395B18EB10020C4F88400212073
:10173000E067FEF7EBFFA4F850608146A4F8526022
:10174000A0682027B0F5805F02D003E00120E7E722
:10175000206910B12E46002510E000260EE0802101
:10176000204600F075FAC0B9D6B116F8010B216811
:101770000885B4F85200401EA4F85200B4F8520094
:101780004B464FF00002CDF800800028E7D14FF023
:101790004001204600F05CFA38B1E7670320BFE75C
:1017A00035F8020BC0F30800E1E7E7670020B7E770
:1017B0007047FEE70C4810B50A4901604FF4E1316B
:1017C0004160002181600C22C160C0E90412816186
:1017D000C16101624162FFF79DFE002801D072B62F
:1017E000FEE710BD00380140700000200C4810B525
:1017F0000A4901604FF4E1314160002181600C220F
:10180000C160C0E904128161C16101624162FFF7F8
:1018100081FE002801D072B6FEE710BD00440040F2
:10182000F8000020FEE7FEE770477047FEF774BF40
:1018300030B59FB028210FA8FEF70AFD142119A882
:10184000FEF706FD3C216846FEF702FD0225012059
:1018500013900F9510201490002416954FF46010EB
:10186000CDE917400FA8FFF7FDF908B172B6FEE702
:101870000F20CDE919054FF48060CDE91B4002210E
:1018800019A81D94FFF7E4F808B172B6FEE703202B
:101890000090029403946846FEF7CEFF002801D022
:1018A00072B6FEE71FB030BD0248016841F4700116
:1018B0000160704788ED00E090F82410C90706D059
:1018C00001684A68836A22F400321A434A6090F839
:1018D0002410890706D501684A68C36A22F4803259
:1018E0001A434A6090F82410490706D501684A68EF
:1018F000036B22F480221A434A6090F824100907EF
:1019000006D501684A68436B22F400421A434A60D4
:1019100090F82410C90606D501688A68836B22F402
:1019200080521A438A6090F82410890606D501680F
:101930008A68C36B22F400521A438A6090F824101C
:10194000490611D501684A68036C22F480121A43D3
:101950004A60016CB1F5801F06D101684A68436C8A
:1019600022F4C0021A434A6090F82410090606D5F2
:1019700001684A68806C22F4002202434A60704782
:101980002DE9F84300260446C0F88460FEF7BEFE49
:101990008046206800684FF0200500076FF07E4702
:1019A00012D54346002229042046009700F050F942
:1019B00050B1216851E8000F20F0800041E800029A
:1019C000002AF6D1E56721E020680068400722D5AB
:1019D000434600224FF480012046009700F038F97A
:1019E000C8B1216851E8000F20F4907041E800026E
:1019F000002AF6D12068083050E8001F21F00101CC
:101A000040E80012002AF5D1C4F8805084F87860CC
:101A10000320BDE8F883E567C4F8805044F8606FA0
:101A2000666026760020F4E710B5406A0021A0F831
:101A30005A10A0F85210FFF70FFC10BD016851E8D2
:101A4000002F22F4907241E80023002BF6D10168A8
:101A5000083151E8002F22F0010241E80023002B59
:101A6000F5D1016E012908D1026852E8001F21F06A
:101A7000100142E80013002BF6D12021C0F880109D
:101A8000002101668166704770B50446806821694F
:101A9000E2690843616900251143084321680A6827
:101AA00049F20C639A4302430A6020684168E26885
:101AB00021F4405111434160A169206A0843216823
:101AC0008A6822F4306202438A605A4A20685A497E
:101AD00090420CD1086B10F0030006D001285FD0B3
:101AE00002285FD0032845D158E0012143E0534A42
:101AF00090420DD1086B10F440304DD0B0F5803FCE
:101B00004ED0B0F5003F4DD0B0F5403F32D145E06A
:101B10004B4A90420DD1086B10F440203CD0B0F5F8
:101B2000802F3DD0B0F5002F3CD0B0F5402F21D113
:101B300034E0444A90420DD1086B10F440102BD091
:101B4000B0F5801F2CD0B0F5001F2BD0B0F5401F92
:101B500010D123E03C4A90420CD1086B10F44000B5
:101B60001AD0B0F5800F1BD0B0F5000F1AD0B0F529
:101B7000400F13D01021E3694FF40040334A4FF671
:101B8000EF7683422ED1092949D2DFE801F00D100A
:101B900013481548484818000021ECE70221EAE7FD
:101BA0000421E8E70821E6E7FEF7F6FF06E0FFF785
:101BB0000BF803E0104602E0FFF71EF880B3410087
:101BC000606801EB5001B1FBF0F0A0F11001B142EF
:101BD00025D84FF6F0710140C0F342000143206860
:101BE000C16021E009291AD2DFE801F005080B19CC
:101BF0000D1919191000FEF7CFFF06E0FEF7E4FFFC
:101C000003E0104602E0FEF7F7FF48B1616800EB21
:101C10005100B0FBF1F0A0F11001B14201D9012552
:101C200002E0216880B2C8600020A066E066284615
:101C300070BD000000380140001002400044004028
:101C400000480040004C00400050004000127A0064
:101C50002DE9F047994617460E4604464FF0000816
:101C6000089D2FE0681C2DD0FEF750FDA0EB090069
:101C7000A84214D89DB120680168490722D5C169DE
:101C8000C94309070DD4082505622046FFF7D6FE93
:101C9000C4F8845084F878800120BDE8F0870320E0
:101CA000FBE7C069C04300050CD421684FF4006015
:101CB00008622046FFF7C2FE2020C4F8840084F8A2
:101CC0007880ECE72068C06936EA000004D0002084
:101CD000B842C7D00020E0E70120F9E70148FFF74C
:101CE000BDBA0000700000200148FFF7B7BA00003D
:101CF000F8000020FEE700000FB4054B10B503A963
:101D0000044A029800F028F810BC5DF814FB0000AB
:101D10001D200008280000200907090E002804DB08
:101D200000F1E02080F80014704700F00F0000F18F
:101D3000E02080F8141D704702E008C8121F08C197
:101D4000002AFAD170477047002001E001C1121F3C
:101D5000002AFBD1704700002DE9FF4F8BB09A4657
:101D60000F460546002606E025280BD052460D9961
:101D700090476D1C761C28780028F5D10FB03046AE
:101D8000BDE8F08F0024A0460122604900E0044332
:101D900015F8013F203B02FA03F00842F7D12878FA
:101DA0002E2817D115F8010F44F004042A280ED06C
:101DB0006FF02F022878A0F1300109290AD808EB2A
:101DC000880102EB410100EB01086D1CF2E757F8B6
:101DD000048B6D1C287869283ED006DC0028CDD005
:101DE00063280BD0642804D136E0732810D07528FE
:101DF0004BD052460D999047761C85E017F8040B9E
:101E00008DF8000000208DF80100E946012003E074
:101E100057F8049B4FF0FF3061074FF0000401D4E6
:101E20000AE0641C44450DDA8442FADB19F8041018
:101E30000029F6D106E0641C8442FCDB19F804108A
:101E40000029F8D1264404E019F8010B52460D99F7
:101E50009047641EF8D257E001CF4FF00A0B0028DC
:101E600002DA40422D2102E0210504D52B218DF814
:101E70002410012103E0E10705D02021F7E70DF14F
:101E8000200908910CE00021F9E701CF4FF00A0B7F
:101E9000F9E75946FEF7E7F901F1300209F8012D9B
:101EA0000028F6D1ADEB090000F1200B600701D44A
:101EB0004FF00108D84502DDA8EB0B0000E0002040
:101EC0008046002406E009A85246005D0D9990471F
:101ED000641C761C08988442F5DB04E030205246EE
:101EE0000D999047761CB8F10001A8F10108F5DCC6
:101EF00005E019F8010B52460D999047761CBBF18D
:101F00000001ABF1010BF4DC6D1C34E70928010082
:101F100030B5164A00239370D3709478D57804EBCB
:101F2000840400EB4404645D782C01D02B2C02D196
:101F30001478641C14705478082C04D1147801F8B7
:101F4000014B137053705478641C547014786400FF
:101F50001470D478641CE4B2D4700A2CDDD3947865
:101F6000641CE4B294700A2CD6D330BD000000206B
:101F7000F0B510F8012B04251207140E00230022DF
:101F800003EB83064FF0780C01EB46062B270DB9C7
:101F900010F8014B5FEA046E05D516F802E0BEF1B9
:101FA0006F0F0ED0B75464066D1C521C240ED2B2B3
:101FB00005F007050A2AEAD35B1CDBB20A2BDED345
:101FC000F0BD06F802C0EEE7C0F30743020EC1B24F
:101FD000022B02D1891A491CC9B2000A00EB011078
:101FE000C0B2032B02D1801A401CC0B27047C0F3AC
:101FF0000040C1F3004110B501EB4000C2F30041C5
:1020000001EB4000C3F30041029C01EB4000C4F32C
:10201000004101EB4000C0B210BD000013B56423C5
:10202000012269460248FFF771FB00981CBD0000C1
:10203000F800002010B500225F2302EB820400218B
:1020400000EB44046354491CC9B20A29FAD3521C58
:10205000D2B20A2AF1D310BD08B5FEF765FBFFF72F
:10206000E7FB4C48416941F400314161406900F4AB
:1020700000300090FFF79EFBFFF7B8FB474846494A
:1020800001600021017141714161816101210162A1
:10209000FEF7BEF908B172B6FEE74148FFF7CAFF86
:1020A000404C3F49206800F0B3F860683C4900F0BC
:1020B000AFF8A0683A4900F0ABF8E068384900F0A2
:1020C000A7F82069364900F0A3F8354A0221032019
:1020D00000F0FAF80021324A084600F0F5F8304ADC
:1020E0000221072000F0F0F82D4A0521062000F01B
:1020F000EBF82B4A0421092000F0E6F8284A0621D3
:10210000052000F0E1F8254D4120203D28703A20BF
:1021100068702068FFF758FFA870A068FFF754FFA9
:10212000E8706068FFF750FF2871E068FFF74CFF28
:1021300068712069FFF748FFA87120690090E36883
:102140006268A1682068FFF752FFE87105F1080195
:102150001348FFF7DDFE1A2229461048FEF732F930
:10216000C5F81A00294664231E2201F14400FFF736
:10217000CDFA29464FF4FA631E2201F14400FFF71D
:102180005BFA07492846FFF7F3FE054800F00CF814
:10219000FEE7000000100240003002404C0000202A
:1021A00080010020040000202DE9F04106460024B3
:1021B000214613A0FFF7A0FD641CE4B20A2CF7D35C
:1021C00010A0FFF799FD002505EB8500002406EB24
:1021D00040070DA0395DFFF78FFD092C03D129467B
:1021E0000AA0FFF789FD641CE4B20A2CF1D305A014
:1021F000FFF782FD6D1CEDB20A2DE5D3BDE8F0813D
:10220000202564000A0000007C2563007C25640012
:10221000F0B5C0F3072202EB820301EB43066F2403
:10222000C0F30747C3B2050E47B1012F13D0000E0C
:10223000401E022F20D0032F42D12EE0581907E074
:102240000A2B2CD2F15C6F293CD0F4545B1CDBB21E
:102250009842F5D834E050190BE00A2A1FD202EB5D
:10226000820501EB45055E5D6F2E2BD0521C5C553F
:10227000D2B29042F1D823E0824210DB581B09E031
:1022800003EB830501EB4505555D6F2D1AD0F45422
:102290005B1EDBB29842F3DB12E0824201DA672078
:1022A000F0BD1046551B09E000EB800601EB460629
:1022B000975D6F2F06D0401E9C55C0B28542F3DB60
:1022C0000120F0BD6820F0BD092801D8092901D9F5
:1022D0006820704701EB810102EB41010A5C5F2A33
:1022E00003D06F2A05D0672070472B220A540120A3
:1022F000704778220A54022070470203040506073B
:1023000008090A0B0C0D0E0F10100102030405063C
:102310000708090A0B0C0D0E0F100000000000004A
:102320000000010203040607080900000000010282
:102330000304000054230008000000202C000000CB
:10234000381D0008802300082C000020BC05000078
:10235000481D0008000500000101000501020003FE
:102360000103000401040003010500020100000054
:10237000100000000000000000127A0000000000C1
:040000050800018965
:00000001FF
